:100000000C9434000C943E000C943E000C943E0082
:100010000C943E000C943E000C943E000C943E0068
:100020000C943E000C943E000C943E000C943E0058
:100030000C943E000C943E000C943E000C943E0048
:100040000C943E000C943E000C943E000C943E0038
:100050000C943E000C943E000C943E000C943E0028
:100060000C943E000C943E0011241FBECFEFD8E04C
:10007000DEBFCDBF0E9465000C94C9000C94000047
:10008000FC01408121E030E002C0220F331F6A955D
:10009000E2F7242B20830895FC01908121E030E0D9
:1000A00002C0220F331F6A95E2F72095292320838F
:1000B0000895FC01408121E030E002C0220F331F8F
:1000C0006A95E2F7242B2083089565E084E290E0AE
:1000D0000E94400065E084E290E00E94590065E0E3
:1000E00085E290E00E944C0065E087E290E00E948B
:1000F000400065E087E290E00E94590065E088E2F8
:1001000090E00E944C008AB18AB95A9A65E084E274
:1001100090E00E94400065E087E290E00E9440008D
:100120002FEF80E899E2215080409040E1F700C035
:10013000000065E087E290E00E9459002FEF80E820
:1001400099E2215080409040E1F700C0000065E056
:1001500087E290E00E944C002FEF80E899E2215066
:1001600080409040E1F700C0000065E084E290E04C
:100170000E9459002FEF80E899E221508040904082
:10018000E1F700C0000065E085E290E00E944C00CD
:06019000BDCFF894FFCF83
:00000001FF
