:100000000C9434000C9451000C9451000C94510049
:100010000C9451000C9451000C9451000C9451001C
:100020000C9451000C9451000C9451000C9451000C
:100030000C9451000C9499000C9451000C945100B4
:100040000C9451000C9451000C9451000C945100EC
:100050000C9451000C9451000C9451000C945100DC
:100060000C9451000C94510011241FBECFEFD8E026
:10007000DEBFCDBF11E0A0E0B1E0E0E9F2E002C0F8
:1000800005900D92AA30B107D9F721E0AAE0B1E0BE
:1000900001C01D92AB30B207E1F70E9478000C94CA
:1000A00046010C940000FC01408121E030E002C0D8
:1000B000220F331F6A95E2F7242B20830895FC0159
:1000C000908121E030E002C0220F331F6A95E2F7F1
:1000D0002095292320830895FC01408121E030E010
:1000E00002C0220F331F6A95E2F7242B2083089564
:1000F0000E94CA0060E18DE00E94DA00E1E8F0E0D1
:1001000080818B7F8083808183608083EFE6F0E055
:1001100080818E7F8083E1EBF0E080818C7F808323
:10012000808184608083E0E7F0E080818E7F80833F
:10013000FFCF1F920F920FB60F9211242F933F9370
:100140004F935F936F937F938F939F93AF93BF93DF
:10015000EF93FF9361E080910A010E94DA008091A1
:100160000A018B3020F08F5F80930A0102C0109249
:100170000A01FF91EF91BF91AF919F918F917F9174
:100180006F915F914F913F912F910F900FBE0F9004
:100190001F90189564E08AE290E00E94530067E0A7
:1001A0008AE290E00E94530060E084E290E00E94C6
:1001B00053000895CF93DF93E82FF0E0E050FF4F16
:1001C000C08164E08AE290E00E945F0067E08AE21A
:1001D00090E00E945F0060E084E290E00E945F0097
:1001E00085E08A95F1F70000D8E0C0FF06C060E026
:1001F00085E290E00E946C0005C060E085E290E03E
:100200000E945F0085E08A95F1F7000067E08BE2CD
:1002100090E00E946C0085E08A95F1F7000067E0AD
:100220008BE290E00E945F00C695D150F1F6D8E0D5
:10023000C170CC2331F060E085E290E00E946C0058
:1002400005C060E085E290E00E945F0085E08A954D
:10025000F1F7000067E08BE290E00E946C0085E01F
:100260008A95F1F7000067E08BE290E00E945F0062
:10027000D150F9F664E08BE290E00E946C0085E0DA
:100280008A95F1F70000DF91CF910895F894FFCFA0
:0A029000019F250DA94941E1010974
:00000001FF
