S00B00006C63642E73726563E6
S11300000C9434000C9451000C9451000C94510045
S11300100C9451000C9451000C9451000C94510018
S11300200C9451000C942D010C9451000C9451002B
S11300300C9451000C9451000C9451000C945100F8
S11300400C9451000C9451000C9451000C945100E8
S11300500C9451000C9451000C9451000C945100D8
S11300600C9451000C94510011241FBECFEFD8E022
S1130070DEBFCDBF11E0A0E0B1E0EEEAF3E002C0E4
S113008005900D92A031B107D9F721E0A0E1B1E0CC
S113009001C01D92A331B207E1F70E94F6000C944F
S11300A0D5010C940000299A85E08A95F1F70000A7
S11300B029980895CF93C82F662311F0289A01C078
S11300C02898549A559A569A579A5F985E985D98CC
S11300D05C98CC230CF45F9AC6FD5E9AC5FD5D9ACC
S11300E0C4FD5C9A0E9453005F985E985D985C988A
S11300F0C3FD5F9AC2FD5E9AC1FD5D9AC0FD5C9A24
S11301000E9453005C9A5D9A5E9A5F9A87EB9BE02B
S11301100197F1F700C00000CF91089560E00E94BC
S11301205A000895611104C080580E948E000895F9
S113013080540E948E00089581E00E948E000895EC
S113014061E00E945A000895CF93DF93EC01219659
S1130150FC018081882329F00E94A00089918111EB
S1130160FBCFDF91CF910895CF93C82F209A559A52
S1130170219A549A559A569A579A8FEF99EF019764
S1130180F1F700C000005D9A5C9A0E9453008FE171
S11301909EE40197F1F700C000000E9453008FEF26
S11301A090E00197F1F700C000000E9453008FEF28
S11301B090E00197F1F700C000005C980E945300A2
S11301C08FEF90E00197F1F700C0000088E20E94F1
S11301D08E0088E00E948E000E949C0086E00E94AF
S11301E08E008C2F0E948E00CF9108958CE00E9487
S11301F0B40060E081E00E94920080E091E00E94FF
S1130200A40060E086E00E94920084E091E00E94F5
S1130210A40060E08CE00E94920086E091E00E94DD
S1130220A40061E081E00E94920088E091E00E94D5
S1130230A40061E08CE00E9492008AE091E00E94B8
S1130240A400E1EBF0E0808187608083E0E7F0E0E8
S11302508081816080837894FFCF1F920F920FB6C4
S11302600F9211242F933F934F935F936F937F9338
S11302708F939F93AF93BF93CF93DF93EF93FF93AA
S1130280809112018F5F863018F48093120145C06B
S113029010921201809111018A3040F010921101E4
S11302A0809110018F5F8093100109C08F5F80934C
S11302B01101809110018C3310F010921001CCE0E8
S11302C0D1E0DD278091110149E0BE0190E00E9458
S11302D0A00160E087E00E949200CE010E94A40089
S11302E080911001893068F44AE0BE0190E00E94D8
S11302F0A00160E085E00E949200CE010E94A4006B
S11303000CC04AE0BE0190E00E94A00160E084E0DD
S11303100E949200CE010E94A400FF91EF91DF9110
S1130320CF91BF91AF919F918F917F916F915F9189
S11303304F913F912F910F900FBE0F901F901895E2
S1130340BB274A3031F4992322F4BDE2909581957C
S11303509F4F0C94AC01BB27FB015527AA27880F9C
S1130360991FAA1FA41710F0A41B83955051B9F725
S1130370A05DAA3308F0A95DA193009779F7B111A4
S1130380B1931192CB010C94C501DC01FC01672FE0
S113039071917723E1F7329704C07C916D93708358
S11103A06291AE17BF07C8F30895F894FFCF1B
S11303AE30303A002E00610062006300202000000D
S9030000FC
