:100000000C9434000C943E000C943E000C943E0082
:100010000C943E000C943E000C943E000C943E0068
:100020000C943E000C943E000C943E000C943E0058
:100030000C943E000C943E000C943E000C943E0048
:100040000C943E000C943E000C943E000C943E0038
:100050000C943E000C943E000C943E000C943E0028
:100060000C943E000C943E0011241FBECFEFD8E04C
:10007000DEBFCDBF0E9440000C946D000C940000C8
:10008000259A2D983A9A42982FEF8FE097E22150C7
:1000900080409040E1F700C000002D9A2FEF8FE0E4
:1000A00097E2215080409040E1F700C000002D9879
:1000B0002FEF8FE097E2215080409040E1F700C0A1
:1000C0000000429A2FEF8FE097E22150804090404D
:0E00D000E1F700C000004298D7CFF894FFCFB0
:00000001FF
