:100000000C9434000C943E000C943E000C943E0082
:100010000C943E000C943E000C943E000C943E0068
:100020000C943E000C943E000C943E000C943E0058
:100030000C943E000C943E000C943E000C943E0048
:100040000C943E000C943E000C943E000C943E0038
:100050000C943E000C943E000C943E000C943E0028
:100060000C943E000C943E0011241FBECFEFD8E04C
:10007000DEBFCDBF0E9440000C9470000C940000C5
:10008000259A2D983D9A45988AB18AB95A9A2FEFA8
:100090008FE097E2215080409040E1F700C00000DF
:1000A0002D9A2FEF8FE097E2215080409040E1F7AA
:1000B00000C000002D982FEF8FE097E22150804084
:1000C0009040E1F700C00000459A2FEF8FE097E2E3
:1000D000215080409040E1F700C000004598D7CF04
:0400E000F894FFCFC2
:00000001FF
