S00E000030382D6932432E73726563A3
S11300000C9434000C9451000C9451000C94510045
S11300100C9451000C9451000C9451000C94510018
S11300200C9451000C9451000C9451000C94510008
S11300300C9451000C946C000C9451000C945100DD
S11300400C9451000C9451000C9414010C94420132
S11300500C9451000C9451000C9451000C945100D8
S11300600C9451000C94510011241FBECFEFD8E022
S1130070DEBFCDBF11E0A0E0B1E0E0ECF3E002C0F0
S113008005900D92AE31B107D9F721E0AEE1B1E0B0
S113009001C01D92A33AB207E1F70E9453000C94E9
S11300A0DE010C9400000E94D80087E690E00E94D4
S11300B06C01E1E8F0E080818A7F80838081826046
S11300C08083EFE6F0E0808181608083789482E031
S11300D091E00E949A01FFCF1F920F920FB60F92E8
S11300E011242F933F934F935F936F937F938F9339
S11300F09F93AF93BF93EF93FF93CF93DF9300D07E
S1130100CDB7DEB780E390E39A83898380910101C0
S11301108230B9F0833001F1813091F58091000192
S11301208F5F80930001883728F082E0809301017B
S11301300E94050180910001893728F11092000185
S113014022C080910001880F0E94E7000E941001E4
S113015081E08093010117C04AE0BE016F5F7F4FC9
S113016080E090E00E94A901CE0101960E949A01CC
S11301708BE191E00E949A0181E08093010103C028
S113018081E0809301010F900F90DF91CF91FF9157
S1130190EF91BF91AF919F918F917F916F915F91FB
S11301A04F913F912F910F900FBE0F901F90189574
S11301B087B18F7C87B988B1806388B9E9EBF0E0B7
S11301C080818C7F808388E98093B800089594EAC5
S11301D09093BC00ECEBF0E090819923ECF78093D2
S11301E0BB0084E88093BC00ECEBF0E080818823C2
S11301F0ECF79091B900987F983129F081E0903420
S113020019F480E0089580E0089584EC8093BC00A4
S1130210ECEBF0E080818823ECF78091BB0008953B
S113022084E98093BC0008951F920F920FB60F9239
S113023011242F938F939F93EF93FF938091C0008A
S11302402091C6008C71E0912001EF5FEF739091D3
S11302501F01E91739F0E0932001F0E0ED5DFE4F56
S1130260208301C082E090911E01892B80931E019E
S1130270FF91EF919F918F912F910F900FBE0F904F
S11302801F9018951F920F920FB60F9211248F93FF
S11302909F93EF93FF9390912201809121019817EE
S11302A069F0E0912101EF5FEF73E0932101F0E049
S11302B0ED59FE4F80818093C60005C0E1ECF0E06B
S11302C080818F7D8083FF91EF919F918F910F901B
S11302D00FBE0F901F9018951092220110922101C9
S11302E01092200110921F0199231CF422E0209304
S11302F0C00090789093C5008093C40088E98093EF
S1130300C10086E08093C2000895209122012F5FEE
S11303102F73909121012917E1F3E22FF0E0ED59B9
S1130320FE4F808320932201E1ECF0E08081806223
S113033080830895CF93DF93EC018881882331F083
S113034021960E94850189918111FBCFDF91CF9184
S11303500895BB274A3031F4992322F4BDE29095E5
S113036081959F4F0C94B501BB27FB015527AA2704
S1130370880F991FAA1FA41710F0A41B839550512E
S1130380B9F7A05DAA3308F0A95DA193009779F7A6
S1130390B111B1931192CB010C94CE01DC01FC019B
S11303A0672F71917723E1F7329704C07C916D93A5
S11303B070836291AE17BF07C8F30895F894FFCF16
S11303C007010D0A53656E636F72206D6561737565
S11103D07265642076616C7565733A0D0A00DF
S9030000FC
